:100000000C9463000C948B000C948B000C948B006C
:100010000C948B000C948B000C948B000C948B0034
:100020000C948B000C948B000C948B000C948B0024
:100030000C948B000C948B000C948B000C948B0014
:100040000C94D8070C948B000C94C60A0C94F80AF4
:100050000C948B000C948B000C948B000C948B00F4
:100060000C94AB060C948B00000000080002010009
:100070000003040700000000000000000102040863
:100080001020408001020408102001020408102002
:10009000040404040404040402020202020203032E
:1000A00003030303000000002300260029000000D2
:1000B0000000250028002B0000000000240027007D
:1000C0002A00C105280B11241FBECFEFD8E0DEBFE8
:1000D000CDBF11E0A0E0B1E0E4E0F8E102C005909E
:1000E0000D92A433B107D9F723E0A4E3B1E001C036
:1000F0001D92A430B207E1F710E0C6ECD0E004C0D6
:100100002297FE010E94FC0BC23CD107C9F70E9456
:10011000940B0C94000C0C940000DC01ED91FC910C
:100120000190F081E02D0994CF93DF9384E00E9449
:100130005E09D82F85E00E945E09C82F0E94220820
:10014000E62F80913701D817E9F0811117C02E2FC3
:1001500030E080913801281B31094091010150E0C5
:10016000421753075CF420913401822F90E00196EE
:1001700068E170E00E94B00B80933401E093380195
:10018000D093370180913501C817E1F0811116C075
:100190002E2F30E080913601281B3109409101015A
:1001A00050E04217530754F480910001811104C0BC
:1001B00081E08093000102C010920001E0933601BB
:1001C000C0933501DF91CF91089550915401505360
:1001D0005A3010F08AE001C0852F80934A01409187
:1001E000550140534A3010F08AE001C0842F8093BB
:1001F00049013091560130533A3010F08AE001C085
:10020000832F809348012091570120532A3010F00A
:100210008AE001C0822F809347019091580190534A
:100220009A3010F08AE001C0892F809346018091B6
:10023000590180538A3010F06AE001C0682F609342
:1002400045015A3008F05AE050933F014A3008F017
:100250004AE0409340013A3008F03AE030934101DF
:100260002A3008F02AE0209342019A3008F09AE000
:10027000909343018A3008F08AE080934401089506
:10028000FC0182816481238130E09AE0899F200D06
:10029000311D11248CE3829FA001839F500D1124F6
:1002A000858190E02AE0629F800D911D1124840FCA
:1002B000951F08950F931F93CF93DF938B010E9497
:1002C0004001EC01C8010E9440019C012C1B3D0B28
:1002D0002130310539F0892B11F080E004C0CF3096
:1002E000DE40D9F781E0DF91CF911F910F91089502
:1002F00080913F0180930D018091400180930E0118
:100300008091410180930F018091420180931001FF
:1003100080914301809311018091440180931201E7
:100320000895CF92DF92EF92FF920F931F93CF9396
:10033000DF93C02FD0E0CE5FDE4F088190E1099FB0
:1003400080011124AE2DB0E0AE5FBE4FCC90C02A2C
:10035000E42FF0E0EE5FFE4F408190E1499FA00165
:100360001124C22FD0E0CE5FDE4FE880E42AA82F10
:10037000B0E0AE5FBE4F8C9120E1829FC00111249E
:10038000E62FF0E0EE5FFE4F0081082BC0E0D0E0EA
:10039000D12CC6010C2E02C0959587950A94E2F7E0
:1003A00080FF02C061E001C060E08EE00E94280989
:1003B00061E08FE00E94280960E08FE00E94280938
:1003C0002196C830D10529F7C0E0D0E0F12CC70153
:1003D0000C2E02C0959587950A94E2F780FF02C023
:1003E00061E001C060E08EE00E94280961E08FE0DA
:1003F0000E94280960E08FE00E9428092196C830F9
:10040000D10529F7C0E0D0E010E0C8010C2E02C0F1
:10041000959587950A94E2F780FF02C061E001C0DC
:1004200060E08EE00E94280961E08FE00E942809C8
:1004300060E08FE00E9428092196C830D10529F795
:1004400061E080E10E94280960E080E1DF91CF91C6
:100450001F910F91FF90EF90DF90CF900C9428099F
:10046000EF920F9361E087E00E94EF0860E087E081
:100470000E94280961E082E00E94EF0861E083E0C9
:100480000E94EF0860E084E00E94EF0861E084E0F1
:100490000E94280960E085E00E94EF0861E085E0A5
:1004A0000E94280961E08EE00E94EF0861E08FE081
:1004B0000E94EF0861E080E10E94EF08E12C00E07B
:1004C00020E040E060E080E00E94910164E670E09E
:1004D00080E090E00E945108EE24E39401E021E0E6
:1004E00041E061E081E00E94910164E670E080E01B
:1004F00090E00E94510882E0E82E02E022E042E013
:1005000062E082E00E94910164E670E080E090E0A9
:100510000E94510893E0E92E03E023E043E063E00A
:1005200083E00E94910164E670E080E090E00E9428
:10053000510824E0E22E04E024E044E064E084E09A
:100540000E94910164E670E080E090E00E94510812
:1005500035E0E32E05E025E045E065E085E00E941A
:10056000910164E670E080E090E00E94510846E06E
:10057000E42E06E026E046E066E086E00E94910177
:1005800064E670E080E090E00E94510857E0E52EBC
:1005900007E027E047E067E087E00E94910164E61A
:1005A00070E080E090E00E94510868E0E62E08E0EC
:1005B00028E048E068E088E00E94910164E670E08D
:1005C00080E090E00E94510879E0E72E09E029E000
:1005D00049E069E089E00E94910164E670E080E012
:1005E00090E00E945108EAE0EE2E0AE02AE04AE09C
:1005F0006AE08AE00E94910126E040EC52E160E06E
:1006000070E087E692E00E946A0A8EE991E00E941B
:10061000310561E083E00E94280981E080931301A5
:100620000F91EF9008956AE00E94A40B20E1829F51
:10063000900D1124892F0895982F92959F708F7097
:100640002AE0929F800D11240895CF92EF92FF929D
:100650000F931F93CF93DF9300D0CDB7DEB7F82E63
:10066000162F68E670E08EE991E02A8349830E94A4
:10067000450560E070E08EE991E00E948D008F2DCD
:100680000E941303682F8EE991E00E94F204812FEB
:100690000E941303682F8EE991E00E94F2044981C1
:1006A000842F0E941303682F8EE991E00E94F204C8
:1006B0002A81822F0E941303682F8EE991E00E9405
:1006C000F204802F0E941303682F8EE991E00E94AC
:1006D000F2048E2D0E941303682F8EE991E00E9490
:1006E000F2048C2D0E941303682F8EE991E00E9482
:1006F000F2048EE991E00F900F90DF91CF911F915E
:100700000F91FF90EF90CF900C94BE05CF92EF9297
:100710000F9380913F01409140013AE0839F400D4B
:10072000112480914101609142019AE0899F600DFE
:1007300011249091430180914401CC24C394EE2470
:10074000E39401E021E03AE0939F800D11240E94A0
:1007500025030F91EF90CF90089590914B01913028
:1007600009F04DC080919D01843229F480934D01A0
:1007700090934C0142C090914C01E92FF0E0E35B73
:10078000FE4F80839F5F903509F49FE490934C0166
:1007900021E090915001973409F020E091E08D30F4
:1007A00009F090E0922381E020915101273409F073
:1007B00080E0892311F1809152018134F1F40E948B
:1007C000E500809113018130B1F46FE371E08DE0B9
:1007D00091E00E945A01882339F061E083E00E9491
:1007E00028090E94780109C060E083E00E9428097E
:1007F0001092130102C00E94860310924B010895CB
:100800001F93CF93DF9368E670E08EE991E00E943A
:10081000450560E070E08EE991E00E948D008EE970
:1008200091E00E94BE0547E050E068E670E08EE986
:1008300091E00E94BB058EE991E00E94A2048F77AF
:100840000E941C03D82F8EE991E00E94A2040E940E
:100850001C03182F8EE991E00E94A2048F730E945E
:100860001C032091340130E0280F311DC90168E1DB
:1008700070E00E94B00BC82F80910001811108C068
:100880008C2F6CE00E94A40BC92F911101C0CCE009
:100890008EE991E00E94A2048EE991E00E94A204F8
:1008A0008EE991E00E94A2048EE991E00E94A204E8
:1008B0002AE08C2F622F0E94A40B80933901909321
:1008C0003A01812F0E94A40B80933B0190933C013D
:1008D0008D2F0E94A40B80933D0190933E01DF91E8
:1008E000CF911F910895EF920F9387E692E00E94B7
:1008F0008709892B49F087E692E00E94A00980933E
:100900009D0181E080934B010E94AD030E94000491
:10091000E0903E0100913D0120913C0140913B015E
:1009200060913A01809139010E9491010F91EF90FD
:100930000C9494008091CE0190E02091CF01821B15
:10094000910908952091CF018091CE01281750F48C
:10095000E22FF0E0E053FE4F808190E02F5F209384
:10096000CF0108958FEF9FEF0895E091CF0180911F
:10097000CE01E81730F4F0E0E053FE4F808190E0C4
:1009800008958FEF9FEF08950895CF92DF92EF9231
:10099000FF920F931F93CF93DF937C01CB018A01CA
:1009A0002091AA01222389F0EB016B01C40ED51E10
:1009B000CC15DD0569F06991D701ED91FC910190AD
:1009C000F081E02DC7010995F3CF642F0E948206C4
:1009D000C801DF91CF911F910F91FF90EF90DF90B1
:1009E000CF900895CF93DF931F92CDB7DEB7698381
:1009F0002091AA012223D1F02091AB01203240F0B6
:100A000021E030E0FC013383228380E090E015C0D8
:100A10008091AC01E82FF0E0E355FE4F998190837F
:100A20008F5F8093AC018093AB0105C061E0CE0184
:100A300001960E94820681E090E00F90DF91CF91B5
:100A40000895FC011382128248EE53E060E070E0EA
:100A5000448355836683778388E191E09183808323
:100A600008951092CF011092CE011092AC01109215
:100A7000AB010C94C50581E08093AA016093CD0180
:100A80001092AC011092AB0108950C943B050F93AA
:100A9000062F21E04091AB016DEA71E08091CD011C
:100AA0000E942B061092AC011092AB011092AA0189
:100AB0000F9108958F929F92AF92BF92CF92DF9243
:100AC000EF92FF920F931F93CF93DF93EC01F62EDB
:100AD000D42E48015901EE2019F10E943B051E2D2C
:100AE000143008F013E01150B8F0E881F98128E0E3
:100AF000129FB0011124A501940104C05695479599
:100B0000379527956A95D2F7CA01B9010190F0810E
:100B1000E02DCE010995E7CF60E0CE010E944705A8
:100B20004D2D413208F040E22C2D60ED71E08F2D0B
:100B30000E94E3051092CF018093CE01DF91CF9107
:100B40001F910F91FF90EF90DF90CF90BF90AF90EB
:100B50009F908F900895CF92EF920F931F93C22E84
:100B6000E12C00E010E098010E945A051F910F91BE
:100B7000EF90CF90089521E00C94AB0561E00C94C8
:100B800047058EE991E00C94210510925D0281E009
:100B900080935B0210925A0261E082E10E94280970
:100BA00061E083E10E942809E9EBF0E080818E7F1B
:100BB000808380818D7F808380E28093B80085E48C
:100BC0008093BC000895413208F043C090915D02CB
:100BD0009111FCCF91E090935D0220935B022FEF87
:100BE0002093F00110923502240F20933402909349
:100BF0005C0290915C02880F892B80935C0280914B
:100C00005A02813061F410925A0280915C02809302
:100C1000BB008091BC0083FDF8CF85EC01C085EE60
:100C20008093BC0080915D028130E1F380913502B8
:100C3000841710F44091350226E332E0FB01D9011C
:100C40008A2F821B841718F48D918193F9CF842FFA
:100C5000089580E008950F93413208F04AC09091C2
:100C60005D029111FCCF92E090935D0200935B02D4
:100C70009FEF9093F0011092350240933402FB01F4
:100C800066E372E0DB019A2F961B941718F491919A
:100C90009D93F9CF10925C0290915C02880F892B92
:100CA00080935C0280915A02813061F410925A0262
:100CB00080915C028093BB008091BC0083FDF8CFE3
:100CC00085EC01C085EE8093BC00222321F0809149
:100CD0005D028230E1F38091F0018F3F61F08091FD
:100CE000F001803251F08091F001803341F483E0D3
:100CF00007C081E005C080E003C082E001C084E05D
:100D00000F910895613298F420915D02243089F4A6
:100D100060931202FC0184E192E0DC012A2F281B7F
:100D2000261718F421912D93F9CF80E0089581E0E2
:100D3000089582E0089585ED8093BC008091BC0009
:100D400084FDFCCF10925D02089585EC8093BC0079
:100D500010925D0208951F920F920FB60F92112408
:100D60002F933F934F935F936F937F938F939F93B3
:100D7000AF93BF93EF93FF938091B900887F803644
:100D800009F49EC078F5883209F45DC090F4803192
:100D900009F456C038F4882309F4F5C0883009F402
:100DA0004FC0F5C0883109F44EC0803209F45FC0ED
:100DB000EEC0803409F46AC058F4803309F457C097
:100DC000883309F0E4C08093F0010E94A506DFC0DB
:100DD000803509F44FC0883509F45DC0883409F0C6
:100DE000D6C0D3C0883909F4C4C0A8F4883709F440
:100DF00067C038F4883609F463C0803709F460C0EE
:100E0000C6C0883809F4B5C0803909F45FC080389D
:100E100009F0BDC05BC0803B09F483C038F4803A60
:100E200009F466C0883A09F47CC0B1C0803C09F47A
:100E3000A4C0883C09F4A1C0883B09F487C0A7C0BE
:100E400080915C0210C09091350280913402981715
:100E500070F5E091350281E08E0F80933502F0E06D
:100E6000EA5CFD4F80818093BB0085EC83C080935A
:100E7000F0018BC0E091350281E08E0F8093350246
:100E80008091BB00F0E0EA5CFD4F808390913502D9
:100E9000809134026BC0E091350281E08E0F809327
:100EA00035028091BB00F0E0EA5CFD4F80838091C9
:100EB0005B0281116AC081E080935A0284EA5EC0BD
:100EC00083E080935D021092F101CFCF8091F10118
:100ED000803208F04EC0E091F10181E08E0F8093E6
:100EE000F1018091BB00F0E0EE50FE4F8083BDCF5A
:100EF0000E94A5068091F101803230F4E091F10169
:100F0000F0E0EE50FE4F10826091F10170E0E09150
:100F10005602F091570282EF91E009951092F1018B
:100F200036C084E080935D02109213021092120288
:100F3000E0915802F09159020995809112028111B5
:100F400005C081E08093120210921402E091130216
:100F500081E08E0F80931302F0E0EC5EFD4F808104
:100F60008093BB009091130280911202981708F4AD
:100F70007CCF85E88093BC000AC085EC8093BC00E0
:100F800010925D0204C01092F0010E949B06FF9136
:100F9000EF91BF91AF919F918F917F916F915F91F1
:100FA0004F913F912F910F900FBE0F901F9018956A
:100FB0001F920F920FB60F9211242F933F938F938E
:100FC0009F93AF93BF9380915F0290916002A09135
:100FD0006102B091620230915E0226E0230F2D374C
:100FE00020F40296A11DB11D05C029E8230F039628
:100FF000A11DB11D20935E0280935F029093600259
:10100000A0936102B09362028091630290916402A6
:10101000A0916502B09166020196A11DB11D809359
:10102000630290936402A0936502B0936602BF913D
:10103000AF919F918F913F912F910F900FBE0F9085
:101040001F9018952FB7F89460915F02709160021D
:1010500080916102909162022FBF08953FB7F8948A
:101060008091630290916402A0916502B091660242
:1010700026B5A89B05C02F3F19F00196A11DB11DF3
:101080003FBF6627782F892F9A2F620F711D811D10
:10109000911D43E0660F771F881F991F4A95D1F76E
:1010A00008958F929F92AF92BF92CF92DF92EF926C
:1010B000FF926B017C010E942E084B015C01C11460
:1010C000D104E104F104F1F00E94A30B0E942E0868
:1010D000681979098A099B09683E73408105910561
:1010E00070F321E0C21AD108E108F10888EE880EF9
:1010F00083E0981EA11CB11CC114D104E104F104C9
:1011000029F7DDCFFF90EF90DF90CF90BF90AF90A9
:101110009F908F900895789484B5826084BD84B543
:10112000816084BD85B5826085BD85B5816085BDE2
:10113000EEE6F0E0808181608083E1E8F0E01082FB
:10114000808182608083808181608083E0E8F0E03C
:10115000808181608083E1EBF0E080818460808326
:10116000E0EBF0E0808181608083EAE7F0E080815D
:101170008460808380818260808380818E7F808391
:101180008081806880831092C1000895833081F04F
:1011900028F4813099F08230A1F008958730A9F0C9
:1011A0008830B9F08430D1F4809180008F7D03C005
:1011B000809180008F7780938000089584B58F7729
:1011C00002C084B58F7D84BD08958091B0008F7773
:1011D00003C08091B0008F7D8093B0000895CF93BD
:1011E000DF9390E0FC01E458FF4F2491FC01E057AD
:1011F000FF4F8491882349F190E0880F991FFC01EB
:10120000E854FF4FA591B49182559F4FFC01C591C1
:10121000D4919FB7611108C0F8948C9120958223D6
:101220008C93888182230AC0623051F4F8948C91A7
:10123000322F309583238C938881822B888304C03E
:10124000F8948C91822B8C939FBFDF91CF9108955E
:101250000F931F93CF93DF931F92CDB7DEB7282F45
:1012600030E0F901E859FF4F8491F901E458FF4F4C
:101270001491F901E057FF4F04910023C9F088232E
:1012800021F069830E94C6086981E02FF0E0EE0F2B
:10129000FF1FE255FF4FA591B4919FB7F8948C9131
:1012A000611103C01095812301C0812B8C939FBFD6
:1012B0000F90DF91CF911F910F910895CF93DF93FE
:1012C000282F30E0F901E859FF4F8491F901E458E3
:1012D000FF4FD491F901E057FF4FC491CC2391F017
:1012E00081110E94C608EC2FF0E0EE0FFF1FEC55B5
:1012F000FF4FA591B4912C912D2381E090E021F432
:1013000080E002C080E090E0DF91CF910895FC0181
:10131000818D228D90E0805C9F4F821B91098F739D
:1013200099270895FC01918D828D981731F0828D57
:10133000E80FF11D858D90E008958FEF9FEF0895E0
:10134000FC01918D828D981761F0828DDF01A80FCD
:10135000B11D5D968C91928D9F5F9F73928F90E0EF
:1013600008958FEF9FEF08958EE19BE0892B49F060
:1013700080E090E0892B29F00E941E0B81110C94D3
:1013800000000895FC01848DDF01A80FB11DA35A50
:10139000BF4F2C91848D90E001968F739927848F95
:1013A000A689B7892C93A089B1898C9180648C938C
:1013B000938D848D981306C00288F389E02D808177
:1013C0008F7D80830895CF93DF93EC01888D8823F0
:1013D000C9F0EA89FB89808185FD05C0A889B989A2
:1013E0008C9186FD0FC00FB607FCF5CF808185FF7D
:1013F000F2CFA889B9898C9185FFEDCFCE010E94EB
:10140000C209E7CFDF91CF910895CF92DF92FF928B
:101410000F931F93CF93DF931F92CDB7DEB76C016D
:1014200081E0D60158968C9358975B969C915B9778
:101430005C968C915C97981307C05096ED91FC9147
:101440005197808185FD2EC0F601038D10E00F5F5E
:101450001F4F0F731127F02EF601848DF81211C063
:101460000FB607FCF9CFD6015096ED91FC9151973C
:10147000808185FFF1CFC60169830E94C20969811D
:10148000EBCF838DE80FF11DE35AFF4F6083D60148
:101490005B960C935B975296ED91FC9153978081EC
:1014A00080620CC0D6015696ED91FC9157976083EF
:1014B0005096ED91FC91519780818064808381E00A
:1014C00090E00F90DF91CF911F910F91FF90DF90EF
:1014D000CF900895BF92CF92DF92EF92FF92CF9379
:1014E000DF93EC016A017B01B22E60E874E88EE1C3
:1014F00090E0A70196010E94C40B215031094109D7
:1015000051095695479537952795E889F98982E0DD
:101510008083211580E1380798F0E889F9891082E5
:1015200060E472E48FE090E0A70196010E94C40B92
:10153000215031094109510956954795379527950D
:10154000EC85FD853083EE85FF852083188EEC8940
:10155000FD89B082EA89FB89808180618083EA8984
:10156000FB89808188608083EA89FB89808180682B
:101570008083EA89FB8980818F7D8083DF91CF9191
:10158000FF90EF90DF90CF90BF9008951F920F9241
:101590000FB60F9211242F938F939F93EF93FF9386
:1015A000E0917702F09178028081E0917D02F091E4
:1015B0007E0282FD12C09081809180028F5F8F73C6
:1015C00020918102821751F0E0918002F0E0E95908
:1015D000FD4F958F8093800201C08081FF91EF9134
:1015E0009F918F912F910F900FBE0F901F90189584
:1015F0001F920F920FB60F9211242F933F934F9388
:101600005F936F937F938F939F93AF93BF93EF936A
:10161000FF9387E692E00E94C209FF91EF91BF918C
:10162000AF919F918F917F916F915F914F913F917A
:101630002F910F900FBE0F901F90189587E692E0A4
:101640000E94870921E0892B09F420E0822F089568
:1016500010926A021092690288EE93E0A0E0B0E076
:1016600080936B0290936C02A0936D02B0936E0214
:1016700088E291E0909368028093670285EC90E0A5
:10168000909374028093730284EC90E090937602BE
:101690008093750280EC90E09093780280937702BB
:1016A00081EC90E090937A028093790282EC90E052
:1016B00090937C0280937B0286EC90E090937E0274
:1016C00080937D0210928002109281021092820219
:1016D000109283020895CF92DF92EF92FF920F93C0
:1016E0001F93CF93DF937C016A01EB0100E010E0D0
:1016F0000C151D0571F06991D701ED91FC910190D8
:10170000F081E02DC7010995892B19F00F5F1F4F5C
:10171000EFCFC801DF91CF911F910F91FF90EF9014
:10172000DF90CF90089508950E948B080E94930B3C
:101730000E943002C4EBD9E00E9473042097E1F3C9
:101740000E94B409F9CF0895991B79E004C0991F4C
:10175000961708F0961B881F7A95C9F7809508950B
:1017600097FB072E16F4009407D077FD09D00E944E
:10177000E60B07FC05D03EF4909581959F4F0895A8
:10178000709561957F4F0895A1E21A2EAA1BBB1B8D
:10179000FD010DC0AA1FBB1FEE1FFF1FA217B3073D
:1017A000E407F50720F0A21BB30BE40BF50B661F53
:1017B000771F881F991F1A9469F760957095809517
:1017C00090959B01AC01BD01CF010895AA1BBB1BE5
:1017D00051E107C0AA1FBB1FA617B70710F0A61B31
:1017E000B70B881F991F5A95A9F780959095BC0152
:1017F000CD010895EE0FFF1F0590F491E02D09949F
:04180000F894FFCF8A
:10180400010A000102030405060708090F02030583
:101814000904050100000000F204C5049A04A204AE
:10182400B504C40400000000050A6B0B8709A00975
:041834009209E30929
:00000001FF
