:100000000C945D000C9485000C9485000C94850084
:100010000C9485000C9485000C9485000C9485004C
:100020000C9485000C9485000C9485000C9485003C
:100030000C9485000C9485000C9485000C9485002C
:100040000C945B020C9485000C9420050C945205D2
:100050000C9485000C9485000C9485000C9485000C
:100060000C9485000C94850000000008000201003B
:100070000003040700000000000000000102040863
:100080001020408001020408102001020408102002
:10009000040404040404040402020202020203032E
:1000A0000303030300000000250028002B000000CC
:1000B0000000240027002A00820511241FBECFEF74
:1000C000D8E0DEBFCDBF11E0A0E0B1E0E0EAFCE0A7
:1000D00002C005900D92AC31B107D9F721E0ACE137
:1000E000B1E001C01D92A83CB207E1F710E0CAEBF5
:1000F000D0E004C02297FE010E944A06C83BD10707
:10010000C9F70E94EE050C944E060C9400009C0169
:10011000CB01EAE0F0E0223031053CF0BF010E9463
:10012000FE05CB0121503109F6CF6AE070E00E9454
:10013000FE050895CF92DF92EF92FF920F931F93E7
:10014000CF93DF93C02FD0E0C050DF4F088190E104
:10015000099F80011124AE2DB0E0A050BF4FCC907C
:10016000C02AE42FF0E0E050FF4F408190E1499F2A
:10017000A0011124C22FD0E0C050DF4FE880E42A54
:10018000A82FB0E0A050BF4F8C9120E1829FC0010A
:100190001124E62FF0E0E050FF4F0081082BC0E073
:1001A000D0E0D12CC6010C2E02C0959587950A94FB
:1001B000E2F780FF02C061E001C060E08EE00E94D3
:1001C000AB0361E08FE00E94AB0360E08FE00E9430
:1001D000AB032196C830D10529F7C0E0D0E0F12C5F
:1001E000C7010C2E02C0959587950A94E2F780FF0F
:1001F00002C061E001C060E08EE00E94AB0361E0FC
:100200008FE00E94AB0360E08FE00E94AB03219679
:10021000C830D10529F7C0E0D0E010E0C8010C2EAD
:1002200002C0959587950A94E2F780FF02C061E0CD
:1002300001C060E08EE00E94AB0361E08FE00E94AD
:10024000AB0360E08FE00E94AB032196C830D1057C
:1002500029F761E080E10E94AB0360E080E1DF917B
:10026000CF911F910F91FF90EF90DF90CF900C9462
:10027000AB03EF920F9361E087E00E94720360E0AE
:1002800087E00E94AB0361E082E00E94720361E0BC
:1002900083E00E94720361E08EE00E94720361E0DD
:1002A0008FE00E94720361E080E10E947203E12C02
:1002B00000E020E040E060E080E00E949A0064E618
:1002C00070E080E090E00E94D402EE24E39401E02C
:1002D00021E041E061E081E00E949A0064E670E084
:1002E00080E090E00E94D40282E0E82E02E022E06A
:1002F00042E062E082E00E949A0064E670E080E002
:1003000090E00E94D40293E0E92E03E023E043E072
:1003100063E083E00E949A0064E670E080E090E091
:100320000E94D40224E0E22E04E024E044E064E0F1
:1003300084E00E949A0064E670E080E090E00E9411
:10034000D40235E0E32E05E025E045E065E085E0F8
:100350000E949A0064E670E080E090E00E94D4027F
:1003600046E0E42E06E026E046E066E086E00E94F5
:100370009A0064E670E080E090E00E94D40257E0CA
:10038000E52E07E027E047E067E087E00E949A005B
:1003900064E670E080E090E00E94D40268E0E62E1F
:1003A00008E028E048E068E088E00E949A0064E6FF
:1003B00070E080E090E00E94D40279E0E72E09E04E
:1003C00029E049E069E089E00E949A0064E670E073
:1003D00080E090E00E94D402EAE0EE2E0AE02AE0FB
:1003E0004AE06AE08AE00E949A0026E040EC52E18E
:1003F00060E070E08BE291E00F91EF900C94C40408
:10040000CF92DF92EF920F931F93CF93DF9300D0A1
:10041000CDB7DEB70E94A502709321016093200141
:1004200068EE73E080E090E00E94D4020E94A50292
:1004300070931F0160931E012091200130912101D2
:100440006B01C21AD30AD0921D01C0921C01B601E1
:1004500081E090E00E948700E82EB60182E090E003
:100460000E948700082FB60183E090E00E94870079
:10047000282FB60184E090E02A830E948700482F4D
:10048000B60185E090E049830E948700182FB601ED
:1004900086E090E00E9487002A814981612F0E94B6
:1004A0009A000F900F90DF91CF911F910F91EF90D5
:1004B000DF90CF9008951F920F920FB60F921124E4
:1004C0002F933F938F939F93AF93BF93809123017B
:1004D00090912401A0912501B09126013091220133
:1004E00026E0230F2D3720F40296A11DB11D05C073
:1004F00029E8230F0396A11DB11D209322018093AB
:10050000230190932401A0932501B09326018091AB
:10051000270190912801A0912901B0912A0101960B
:10052000A11DB11D8093270190932801A09329015B
:10053000B0932A01BF91AF919F918F913F912F91DD
:100540000F900FBE0F901F9018952FB7F8946091E1
:1005500023017091240180912501909126012FBFE4
:1005600008953FB7F8948091270190912801A091B8
:100570002901B0912A0126B5A89B05C02F3F19F08B
:100580000196A11DB11D3FBF6627782F892F9A2F95
:10059000620F711D811D911D43E0660F771F881F3B
:1005A000991F4A95D1F708958F929F92AF92BF926B
:1005B000CF92DF92EF92FF926B017C010E94B10219
:1005C0004B015C01C114D104E104F104F1F00E947B
:1005D000FD050E94B102681979098A099B09683EE4
:1005E00073408105910570F321E0C21AD108E1083A
:1005F000F10888EE880E83E0981EA11CB11CC1147E
:10060000D104E104F10429F7DDCFFF90EF90DF90F2
:10061000CF90BF90AF909F908F900895789484B5BD
:10062000826084BD84B5816084BD85B5826085BDEE
:1006300085B5816085BDEEE6F0E0808181608083D4
:10064000E1E8F0E0108280818260808380818160B7
:100650008083E0E8F0E0808181608083E1EBF0E07E
:10066000808184608083E0EBF0E080818160808322
:10067000EAE7F0E08081846080838081826080830B
:1006800080818E7F80838081806880831092C1000A
:100690000895833081F028F4813099F08230A1F000
:1006A00008958730A9F08830B9F08430D1F4809172
:1006B00080008F7D03C0809180008F7780938000C1
:1006C000089584B58F7702C084B58F7D84BD089569
:1006D0008091B0008F7703C08091B0008F7D8093B0
:1006E000B0000895CF93DF9390E0FC01E458FF4FF2
:1006F0002491FC01E057FF4F8491882349F190E059
:10070000880F991FFC01E255FF4FA591B4918C55BC
:100710009F4FFC01C591D4919FB7611108C0F89417
:100720008C91209582238C93888182230AC0623029
:1007300051F4F8948C91322F309583238C938881D7
:10074000822B888304C0F8948C91822B8C939FBF5A
:10075000DF91CF9108950F931F93CF93DF931F9253
:10076000CDB7DEB7282F30E0F901E859FF4F84916B
:10077000F901E458FF4F1491F901E057FF4F04913C
:100780000023C9F0882321F069830E94490369810D
:10079000E02FF0E0EE0FFF1FEC55FF4FA591B49155
:1007A0009FB7F8948C91611103C01095812301C00B
:1007B000812B8C939FBF0F90DF91CF911F910F9151
:1007C0000895FC01818D228D90E0805C9F4F821BFB
:1007D00091098F7399270895FC01918D828D981747
:1007E00031F0828DE80FF11D858D90E008958FEF37
:1007F0009FEF0895FC01918D828D981761F0828D95
:10080000DF01A80FB11D5D968C91928D9F5F9F7344
:10081000928F90E008958FEF9FEF089588E795E01D
:10082000892B49F080E090E0892B29F00E9478051F
:1008300081110C9400000895FC01848DDF01A80F44
:10084000B11DA35ABF4F2C91848D90E001968F73F8
:100850009927848FA689B7892C93A089B1898C9117
:1008600080648C93938D848D981306C00288F389DD
:10087000E02D80818F7D80830895CF93DF93EC01FD
:10088000888D8823C9F0EA89FB89808185FD05C0B0
:10089000A889B9898C9186FD0FC00FB607FCF5CFEA
:1008A000808185FFF2CFA889B9898C9185FFEDCF32
:1008B000CE010E941C04E7CFDF91CF910895CF9223
:1008C000DF92FF920F931F93CF93DF931F92CDB7C9
:1008D000DEB76C0181E0D60158968C9358975B96F1
:1008E0009C915B975C968C915C97981307C050968F
:1008F000ED91FC915197808185FD2EC0F601038D0D
:1009000010E00F5F1F4F0F731127F02EF601848D3B
:10091000F81211C00FB607FCF9CFD6015096ED9131
:10092000FC915197808185FFF1CFC60169830E94B8
:100930001C046981EBCF838DE80FF11DE35AFF4F53
:100940006083D6015B960C935B975296ED91FC9178
:100950005397808180620CC0D6015696ED91FC9130
:10096000579760835096ED91FC91519780818064F8
:10097000808381E090E00F90DF91CF911F910F91E4
:10098000FF90DF90CF900895BF92CF92DF92EF92C9
:10099000FF92CF93DF93EC016A017B01B22E60E8F6
:1009A00074E88EE190E0A70196010E9412062150A2
:1009B0003109410951095695479537952795E88999
:1009C000F98982E08083211580E1380798F0E88971
:1009D000F989108260E472E48FE090E0A70196014B
:1009E0000E94120621503109410951095695479537
:1009F00037952795EC85FD853083EE85FF8520832F
:100A0000188EEC89FD89B082EA89FB89808180613A
:100A10008083EA89FB89808188608083EA89FB89F9
:100A2000808180688083EA89FB8980818F7D8083D3
:100A3000DF91CF91FF90EF90DF90CF90BF9008951E
:100A40001F920F920FB60F9211242F938F939F93A3
:100A5000EF93FF93E0913B01F0913C018081E091A5
:100A60004101F091420182FD12C0908180914401C8
:100A70008F5F8F7320914501821751F0E0914401FF
:100A8000F0E0E55DFE4F958F8093440101C08081C9
:100A9000FF91EF919F918F912F910F900FBE0F902B
:100AA0001F9018951F920F920FB60F9211242F933B
:100AB0003F934F935F936F937F938F939F93AF93E6
:100AC000BF93EF93FF938BE291E00E941C04FF9190
:100AD000EF91BF91AF919F918F917F916F915F91B6
:100AE0004F913F912F910F900FBE0F901F9018952F
:100AF0008BE291E00E94E10321E0892B09F420E0E0
:100B0000822F089510922E0110922D0188EE93E00D
:100B1000A0E0B0E080932F0190933001A0933101C9
:100B2000B09332018FE091E090932C0180932B01E0
:100B300085EC90E0909338018093370184EC90E04D
:100B400090933A018093390180EC90E090933C01BE
:100B500080933B0181EC90E090933E0180933D01B6
:100B600082EC90E09093400180933F0186EC90E00E
:100B700090934201809341011092440110924501EB
:100B800010924601109247010895CF92DF92EF92A2
:100B9000FF920F931F93CF93DF937C016A01EB01C8
:100BA00000E010E00C151D0571F06991D701ED9181
:100BB000FC910190F081E02DC7010995892B19F076
:100BC0000F5F1F4FEFCFC801DF91CF911F910F91A2
:100BD000FF90EF90DF90CF90089508950E940E034C
:100BE0000E94ED050E943901CEE0D4E00E9400028F
:100BF0002097E1F30E940E04F9CF089597FB072E8A
:100C000016F4009407D077FD09D00E94340607FC43
:100C100005D03EF4909581959F4F0895709561950C
:100C20007F4F0895A1E21A2EAA1BBB1BFD010DC028
:100C3000AA1FBB1FEE1FFF1FA217B307E407F5078C
:100C400020F0A21BB30BE40BF50B661F771F881F68
:100C5000991F1A9469F760957095809590959B01FE
:100C6000AC01BD01CF010895AA1BBB1B51E107C018
:100C7000AA1FBB1FA617B70710F0A61BB70B881F2C
:100C8000991F5A95A9F780959095BC01CD010895BB
:100C9000EE0FFF1F0590F491E02D0994F894FFCF1B
:100CA000000102030405060708090F000000005FA9
:0C0CB00004C505E103FA03EC033D040059
:107800000C94343C0C94513C0C94513C0C94513CE1
:107810000C94513C0C94513C0C94513C0C94513CB4
:107820000C94513C0C94513C0C94513C0C94513CA4
:107830000C94513C0C94513C0C94513C0C94513C94
:107840000C94513C0C94513C0C94513C0C94513C84
:107850000C94513C0C94513C0C94513C0C94513C74
:107860000C94513C0C94513C11241FBECFEFD8E036
:10787000DEBFCDBF11E0A0E0B1E0EAE8FFE702C063
:1078800005900D92A230B107D9F712E0A2E0B1E065
:1078900001C01D92AD30B107E1F70E942D3D0C945F
:1078A000C33F0C94003C982F95959595959595958B
:1078B000905D8F708A307CF0282F295A8091C0000B
:1078C00085FFFCCF9093C6008091C00085FFFCCF60
:1078D0002093C6000895282F205DF0CF982F809127
:1078E000C00085FFFCCF9093C6000895EF92FF92F1
:1078F0000F931F93EE24FF2487018091C00087FD22
:1079000017C00894E11CF11C011D111D81E2E8164D
:1079100081EAF80687E0080780E0180770F3E09135
:107920000401F091050109958091C00087FFE9CF1E
:107930008091C6001F910F91FF90EF9008950E94D3
:10794000763C982F8091C00085FFFCCF9093C600B5
:1079500091362CF490330CF09053892F089597555D
:10796000892F08951F930E949F3C182F0E949F3CCF
:107970001295107F810F1F9108951F93182F882350
:1079800021F00E94763C1150E1F71F9108951F935A
:10799000182F0E94763C803249F0809103018F5F5E
:1079A000809303018530C1F01F9108958091C0003C
:1079B00085FFFCCF84E18093C6008091C00085FFE5
:1079C000FCCF1093C6008091C00085FFFCCF80E102
:1079D0008093C6001F910895E0910401F091050184
:1079E00009951F9108950E94763C803241F0809164
:1079F00003018F5F80930301853081F008958091AA
:107A0000C00085FFFCCF84E18093C6008091C00058
:107A100085FFFCCF80E18093C6000895E0910401CA
:107A2000F09105010995089548EC50E08823A1F0F4
:107A30002D9A28EE33E0FA013197F1F721503040CA
:107A4000D1F72D9828EE33E0FA013197F1F7215064
:107A50003040D1F7815061F708953F924F925F9285
:107A60006F927F928F929F92AF92BF92CF92DF924E
:107A7000EF92FF920F931F93CF93DF93000082E06A
:107A80008093C00080E18093C4001092C50088E11B
:107A90008093C10086E08093C2005098589A259A3E
:107AA00081E00E94143D24E1F22E9EE1E92E85E959
:107AB000D82E0FE0C02E10E1B12EAA24A394B1E479
:107AC0009B2EA6E58A2EF2E57F2EE0E26E2E79E46B
:107AD000572E63E5462E50E5352E0E94763C8033C6
:107AE000B1F18133B9F1803409F46FC0813409F404
:107AF00076C0823409F485C0853409F488C08035A5
:107B000031F1823521F1813511F1853509F485C0D6
:107B1000863509F48DC0843609F496C0843709F49B
:107B200003C1853709F472C1863709F466C08091B4
:107B300003018F5F80930301853079F6E0910401A2
:107B4000F091050109950E94763C803351F60E9420
:107B5000F33CC3CF0E94763C803249F78091C0004D
:107B600085FFFCCFF092C6008091C00085FFFCCF5E
:107B70009092C6008091C00085FFFCCF8092C60025
:107B80008091C00085FFFCCF7092C6008091C0003C
:107B900085FFFCCF6092C6008091C00085FFFCCFBE
:107BA0005092C6008091C00085FFFCCF4092C60075
:107BB0008091C00085FFFCCF3092C6008091C0004C
:107BC00085FFFCCFB092C60088CF0E94763C8638F5
:107BD00008F4BDCF0E94763C0E94F33C7ECF0E9409
:107BE000763C803809F49CC0813809F40BC1823896
:107BF00009F430C1883909F48FC080E00E94C73C85
:107C00006CCF84E10E94BD3C0E94F33C66CF85E0CE
:107C10000E94BD3C0E94F33C60CF0E94763C809362
:107C200006010E94763C809307010E94F33C55CFE9
:107C30000E94763C803309F411C183E00E94BD3C70
:107C400080E00E94C73C49CF0E94763C80930902A5
:107C50000E94763C8093080280910C028E7F809374
:107C60000C020E94763C853409F409C18091080217
:107C700090910902892B89F000E010E00E94763C87
:107C8000F801E85FFE4F80830F5F1F4F809108026D
:107C9000909109020817190788F30E94763C8032F8
:107CA00009F045CF80910C0280FFF5C0609106017C
:107CB00070910701660F771F7093070160930601AB
:107CC000A0910802B09109021097C9F0E8E0F1E034
:107CD0009B01AD014E0F5F1FF999FECF32BD21BD53
:107CE000819180BDFA9AF99A2F5F3F4FE417F5070B
:107CF00099F76A0F7B1F70930701609306018091CB
:107D0000C00085FFFCCFF092C6008091C00085FFC7
:107D1000FCCFB092C600E1CE83E00E94C73CDDCE2E
:107D200082E00E94C73CD9CE0E94763C8093090233
:107D30000E94763C80930802809106019091070191
:107D4000880F991F90930701809306010E94763C4B
:107D5000853409F49AC080910C028E7F80930C02C6
:107D60000E94763C803209F0B8CE8091C00085FF39
:107D7000FCCFF092C600A0910802B09109021097C2
:107D8000C1F180910C02082F0170182F1695117007
:107D9000E0910601F0910701AF014F5F5F4FBA011B
:107DA00020E030E00023B1F4112339F49491809164
:107DB000C00085FFFCCF9093C6002F5F3F4FCB01E3
:107DC0000196FA012A173B0780F4BC014F5F5F4F11
:107DD000002351F3F999FECFF2BDE1BDF89A90B5B9
:107DE0008091C00085FFFCCFE6CF709307016093C0
:107DF00006018091C00085FDE5CE8091C00085FF21
:107E0000F8CFE0CE81E00E94C73C67CE0E94763C6E
:107E1000803209F08CCE8091C00085FFFCCFF092BB
:107E2000C6008091C00085FFFCCFE092C600809123
:107E3000C00085FFFCCFD092C6008091C00085FFB6
:107E4000FCCFC092C6008091C00085FFFCCFB092ED
:107E5000C60043CE80E10E94C73C3FCE0E94763CE4
:107E60000E94763C182F0E94763C112309F483C0AF
:107E7000113009F484C08FE00E94C73C2ECE80915F
:107E80000C02816080930C02F1CE80910C02816023
:107E900080930C0265CF809107018823880F880B9F
:107EA0008A2180930B028091060190910701880F2F
:107EB000991F90930701809306018091080280FF2B
:107EC00009C08091080290910902019690930902DD
:107ED00080930802F894F999FECF1127E0910601EA
:107EE000F0910701C8E0D1E0809108029091090269
:107EF000103091F40091570001700130D9F303E084
:107F000000935700E8950091570001700130D9F3B4
:107F100001E100935700E8950990199000915700EE
:107F200001700130D9F301E000935700E8951395F3
:107F3000103498F011270091570001700130D9F3E7
:107F400005E000935700E89500915700017001305B
:107F5000D9F301E100935700E8953296029709F0B2
:107F6000C7CF103011F00296E5CF11248091C000E8
:107F700085FFC5CEC8CE8EE10E94C73CAECD85E957
:0A7F80000E94C73CAACDF894FFCF81
:027F8A00800075
:040000030000780081
:00000001FF
