:100000000C945D000C9485000C9485000C94850084
:100010000C9485000C9485000C9485000C9485004C
:100020000C9485000C9485000C9485000C9485003C
:100030000C9485000C9485000C9485000C9485002C
:100040000C9435020C9485000C94EE040C9420055D
:100050000C9485000C9485000C9485000C9485000C
:100060000C9485000C94850000000008000201003B
:100070000003040700000000000000000102040863
:100080001020408001020408102001020408102002
:10009000040404040404040402020202020203032E
:1000A0000303030300000000250028002B000000CC
:1000B0000000240027002A00500511241FBECFEFA6
:1000C000D8E0DEBFCDBF11E0A0E0B1E0ECEEFBE098
:1000D00002C005900D92AC31B107D9F721E0ACE137
:1000E000B1E001C01D92A53CB207E1F710E0CAEBF8
:1000F000D0E004C02297FE010E94F005C83BD10762
:10010000C9F70E94BC050C94F4050C940000CF9232
:10011000DF92EF92FF920F931F93CF93DF93C02F45
:10012000D0E0CF5FDE4F088190E1099F800111246C
:10013000AE2DB0E0AF5FBE4FCC90C02AE42FF0E010
:10014000EF5FFE4F408190E1499FA0011124C22F33
:10015000D0E0CF5FDE4FE880E42AA82FB0E0AF5FA9
:10016000BE4F8C9120E1829FC0011124E62FF0E068
:10017000EF5FFE4F0081082BC0E0D0E0D12CC6011C
:100180000C2E02C0959587950A94E2F780FF02C075
:1001900061E001C060E08EE00E94790361E08FE0E1
:1001A0000E94790360E08FE00E9479032196C830B5
:1001B000D10529F7C0E0D0E0F12CC7010C2E02C018
:1001C000959587950A94E2F780FF02C061E001C02F
:1001D00060E08EE00E94790361E08FE00E94790385
:1001E00060E08FE00E9479032196C830D10529F79D
:1001F000C0E0D0E010E0C8010C2E02C095958795B4
:100200000A94E2F780FF02C061E001C060E08EE086
:100210000E94790361E08FE00E94790360E08FE043
:100220000E9479032196C830D10529F761E080E169
:100230000E94790360E080E1DF91CF911F910F91DF
:10024000FF90EF90DF90CF900C947903EF920F9393
:1002500061E087E00E94400360E087E00E9479034C
:1002600061E082E00E94400361E083E00E9440037D
:1002700061E08EE00E94400361E08FE00E94400355
:1002800061E080E10E944003E12C00E020E040E0DA
:1002900060E080E00E94870064E670E080E090E02B
:1002A0000E94A202EE24E39401E021E041E061E03B
:1002B00081E00E94870064E670E080E090E00E94A8
:1002C000A20282E0E82E02E022E042E062E082E068
:1002D0000E94870064E670E080E090E00E94A20245
:1002E00093E0E92E03E023E043E063E083E00E9433
:1002F000870064E670E080E090E00E94A20224E0C3
:10030000E22E04E024E044E064E084E00E94870000
:1003100064E670E080E090E00E94A20235E0E32E07
:1003200005E025E045E065E085E00E94870064E6A1
:1003300070E080E090E00E94A20246E0E42E06E039
:1003400026E046E066E086E00E94870064E670E012
:1003500080E090E00E94A20257E0E52E07E027E04F
:1003600047E067E087E00E94870064E670E080E095
:1003700090E00E94A20268E0E62E08E028E048E053
:1003800068E088E00E94870064E670E080E090E02A
:100390000E94A20279E0E72E09E029E049E069E045
:1003A00089E00E94870064E670E080E090E00E94AF
:1003B000A202EAE0EE2E0AE02AE04AE06AE08AE0E1
:1003C0000E94870026E040EC52E160E070E088E2A5
:1003D00091E00F91EF900C949204EF920F93909113
:1003E0001E0180910001981740F480911C01E82EB5
:1003F000082F282F482F682F07C0FAE0EF2E0AE0B9
:100400002AE04AE06AE08AE00E94870080911E01AB
:100410008F5F80931E0180911E018A3038F0109208
:100420001E0180911D018F5F80931D0180911D0130
:10043000813190F0809100018F5F8A3018F48093B1
:10044000000108C083E08093000180911C018F5F50
:1004500080931C0110921D0180911C018A3010F0C4
:1004600010921C010F91EF9008951F920F920FB6FA
:100470000F9211242F933F938F939F93AF93BF932A
:100480008091200190912101A0912201B09123013E
:1004900030911F0126E0230F2D3720F40296A11D75
:1004A000B11D05C029E8230F0396A11DB11D20939E
:1004B0001F018093200190932101A0932201B0930A
:1004C00023018091240190912501A0912601B091F2
:1004D00027010196A11DB11D809324019093250150
:1004E000A0932601B0932701BF91AF919F918F9167
:1004F0003F912F910F900FBE0F901F9018953FB70F
:10050000F8948091240190912501A0912601B09149
:10051000270126B5A89B05C02F3F19F00196A11D04
:10052000B11D3FBF6627782F892F9A2F620F711D4B
:10053000811D911D43E0660F771F881F991F4A9503
:10054000D1F708958F929F92AF92BF92CF92DF9290
:10055000EF92FF926B017C010E947F024B015C01D4
:10056000C114D104E104F104F1F00E94CB050E9412
:100570007F02681979098A099B09683E73408105E1
:10058000910570F321E0C21AD108E108F10888EE64
:10059000880E83E0981EA11CB11CC114D104E10493
:1005A000F10429F7DDCFFF90EF90DF90CF90BF905F
:1005B000AF909F908F900895789484B5826084BDA9
:1005C00084B5816084BD85B5826085BD85B5816057
:1005D00085BDEEE6F0E0808181608083E1E8F0E0B7
:1005E0001082808182608083808181608083E0E8E6
:1005F000F0E0808181608083E1EBF0E080818460C5
:100600008083E0EBF0E0808181608083EAE7F0E0C6
:1006100080818460808380818260808380818E7FFE
:1006200080838081806880831092C1000895833028
:1006300081F028F4813099F08230A1F0089587305C
:10064000A9F08830B9F08430D1F4809180008F7D9A
:1006500003C0809180008F7780938000089584B5D7
:100660008F7702C084B58F7D84BD08958091B000DE
:100670008F7703C08091B0008F7D8093B000089584
:10068000CF93DF9390E0FC01E458FF4F2491FC01ED
:10069000E057FF4F8491882349F190E0880F991F1C
:1006A000FC01E255FF4FA591B4918C559F4FFC0181
:1006B000C591D4919FB7611108C0F8948C91209591
:1006C00082238C93888182230AC0623051F4F8948B
:1006D0008C91322F309583238C938881822B888351
:1006E00004C0F8948C91822B8C939FBFDF91CF91A3
:1006F00008950F931F93CF93DF931F92CDB7DEB76B
:10070000282F30E0F901E859FF4F8491F901E458AE
:10071000FF4F1491F901E057FF4F04910023C9F0F6
:10072000882321F069830E9417036981E02FF0E09C
:10073000EE0FFF1FEC55FF4FA591B4919FB7F894B2
:100740008C91611103C01095812301C0812B8C9382
:100750009FBF0F90DF91CF911F910F910895FC01E2
:10076000818D228D90E0805C9F4F821B91098F7359
:1007700099270895FC01918D828D981731F0828D13
:10078000E80FF11D858D90E008958FEF9FEF08959C
:10079000FC01918D828D981761F0828DDF01A80F89
:1007A000B11D5D968C91928D9F5F9F73928F90E0AB
:1007B00008958FEF9FEF089586E495E0892B49F027
:1007C00080E090E0892B29F00E94460581110C946D
:1007D00000000895FC01848DDF01A80FB11DA35A0C
:1007E000BF4F2C91848D90E001968F739927848F51
:1007F000A689B7892C93A089B1898C9180648C9348
:10080000938D848D981306C00288F389E02D808132
:100810008F7D80830895CF93DF93EC01888D8823AB
:10082000C9F0EA89FB89808185FD05C0A889B9895D
:100830008C9186FD0FC00FB607FCF5CF808185FF38
:10084000F2CFA889B9898C9185FFEDCFCE010E94A6
:10085000EA03E7CFDF91CF910895CF92DF92FF9225
:100860000F931F93CF93DF931F92CDB7DEB76C0129
:1008700081E0D60158968C9358975B969C915B9734
:100880005C968C915C97981307C05096ED91FC9103
:100890005197808185FD2EC0F601038D10E00F5F1A
:1008A0001F4F0F731127F02EF601848DF81211C01F
:1008B0000FB607FCF9CFD6015096ED91FC915197F8
:1008C000808185FFF1CFC60169830E94EA036981B7
:1008D000EBCF838DE80FF11DE35AFF4F6083D60104
:1008E0005B960C935B975296ED91FC9153978081A8
:1008F00080620CC0D6015696ED91FC9157976083AB
:100900005096ED91FC91519780818064808381E0C5
:1009100090E00F90DF91CF911F910F91FF90DF90AA
:10092000CF900895BF92CF92DF92EF92FF92CF9334
:10093000DF93EC016A017B01B22E60E874E88EE17E
:1009400090E0A70196010E94CC0521503109410990
:1009500051095695479537952795E889F98982E099
:100960008083211580E1380798F0E889F9891082A1
:1009700060E472E48FE090E0A70196010E94CC054C
:1009800021503109410951095695479537952795C9
:10099000EC85FD853083EE85FF852083188EEC89FC
:1009A000FD89B082EA89FB89808180618083EA8940
:1009B000FB89808188608083EA89FB8980818068E7
:1009C0008083EA89FB8980818F7D8083DF91CF914D
:1009D000FF90EF90DF90CF90BF9008951F920F92FD
:1009E0000FB60F9211242F938F939F93EF93FF9342
:1009F000E0913801F09139018081E0913E01F09160
:100A00003F0182FD12C09081809141018F5F8F7301
:100A100020914201821751F0E0914101F0E0E85D40
:100A2000FE4F958F8093410101C08081FF91EF912E
:100A30009F918F912F910F900FBE0F901F9018953F
:100A40001F920F920FB60F9211242F933F934F9343
:100A50005F936F937F938F939F93AF93BF93EF9326
:100A6000FF9388E291E00E94EA03FF91EF91BF912A
:100A7000AF919F918F917F916F915F914F913F9136
:100A80002F910F900FBE0F901F90189588E291E064
:100A90000E94AF0321E0892B09F420E0822F089502
:100AA00010922B0110922A0188EE93E0A0E0B0E0B2
:100AB00080932C0190932D01A0932E01B0932F01D0
:100AC00080E191E0909329018093280185EC90E0EA
:100AD000909335018093340184EC90E0909337013A
:100AE0008093360180EC90E0909339018093380137
:100AF00081EC90E090933B0180933A0182EC90E08E
:100B000090933D0180933C0186EC90E090933F01EF
:100B100080933E01109241011092420110924301D4
:100B2000109244010895CF92DF92EF92FF920F93BB
:100B30001F93CF93DF937C016A01EB0100E010E08B
:100B40000C151D0571F06991D701ED91FC91019093
:100B5000F081E02DC7010995892B19F00F5F1F4F18
:100B6000EFCFC801DF91CF911F910F91FF90EF90D0
:100B7000DF90CF90089508950E94DC020E94BB058B
:100B80000E942601CCEDD3E00E94ED012097E1F315
:100B90000E94DC03F9CF0895A1E21A2EAA1BBB1B09
:100BA000FD010DC0AA1FBB1FEE1FFF1FA217B30739
:100BB000E407F50720F0A21BB30BE40BF50B661F4F
:100BC000771F881F991F1A9469F760957095809513
:100BD00090959B01AC01BD01CF010895EE0FFF1F61
:0C0BE0000590F491E02D0994F894FFCFEB
:100BEC0005000102030405060708090F00000000B8
:0C0BFC002D049305AF03C803BA030B04DB
:00000001FF
