:100000000C945D000C9485000C9485000C94850084
:100010000C9485000C9485000C9485000C9485004C
:100020000C9485000C9485000C9485000C9485003C
:100030000C9485000C9485000C9485000C9485002C
:100040000C9429050C9485000C9485000C94850073
:100050000C9485000C9485000C9485000C9485000C
:100060000C94FC030C9485000000000800020100C1
:100070000003040700000000000000000102040863
:100080001020408001020408102001020408102002
:10009000040404040404040402020202020203032E
:1000A0000303030300000000250028002B000000CC
:1000B0000000240027002A00120311241FBECFEFE6
:1000C000D8E0DEBFCDBF11E0A0E0B1E0E0E9FDE0A7
:1000D00002C005900D92A031B107D9F721E0A0E14F
:1000E000B1E001C01D92A93DB207E1F710E0CAEBF3
:1000F000D0E004C02297FE010E94C206C83BD1078F
:10010000C9F70E94A4060C94C6060C940000DC01FA
:10011000ED91FC910190F081E02D09946AE00E943C
:10012000B40620E1829F900D1124892F0895982F05
:1001300092959F708F702AE0929F800D11240895F0
:100140000895CF92EF92FF920F931F93CF93DF9377
:1001500000D0CDB7DEB7F82E162F68E670E080E14C
:1001600091E02A8349830E94960260E070E080E17A
:1001700091E00E9487008F2D0E948E00682F80E101
:1001800091E00E944302812F0E948E00682F80E13F
:1001900091E00E9443024981842F0E948E00682FC3
:1001A00080E191E00E9443022A81822F0E948E000A
:1001B000682F80E191E00E944302802F0E948E0010
:1001C000682F80E191E00E9443028E2D0E948E00F4
:1001D000682F80E191E00E9443028C2D0E948E00E6
:1001E000682F80E191E00E94430280E191E00F904E
:1001F0000F90DF91CF911F910F91FF90EF90CF90D3
:100200000C940F036F927F928F929F92AF92BF9246
:10021000CF92DF92EF92FF920F931F93CF93DF93D2
:100220004C015B01EA01390168E670E080E191E090
:100230000E94960260E070E080E191E00E948700F9
:1002400080E191E00E940F0347E050E068E670E033
:1002500080E191E00E940C0380E191E00E94F301B3
:100260008F770E949700F401808380E191E00E94E3
:10027000F3010E949700F501808380E191E00E94E4
:10028000F3018F730E949700888380E191E00E94C0
:10029000F3010E949700F301808380E191E00E94C6
:1002A000F3010E949700F801808380E191E00E94B1
:1002B000F3010E949700F701808380E191E00E94A2
:1002C000F3010E949700F6018083DF91CF911F9187
:1002D0000F91FF90EF90DF90CF90BF90AF909F90E5
:1002E0008F907F906F900895CF92DF92EF92FF9260
:1002F0000F931F93CF93DF93CDB7DEB727970FB63A
:10030000F894DEBF0FBECDBF61E082E00E943406EC
:1003100080E191E00E9482028EE0C82E9BE0E92EEF
:100320000AE124E045E16AE28EE10E94A10068EB67
:100330007BE080E090E00E949605CE0101966C0182
:1003400001967C018E010D5F1F4F9E012C5F3F4F78
:10035000AE014B5F5F4FBE016A5F7F4F05960E9403
:1003600002018F81803241F561E082E00E946D06DA
:1003700064E670E080E090E00E94960560E082E034
:100380000E946D0664E670E080E090E00E949605B1
:1003900061E082E00E946D0664E670E080E090E03B
:1003A0000E94960560E082E00E946D0664E670E0BF
:1003B00080E090E00E94960527960FB6F894DEBF85
:1003C0000FBECDBFDF91CF911F910F91FF90EF90A6
:1003D000DF90CF9008958091400190E020914101FD
:1003E000821B9109089520914101809140012817B5
:1003F00050F4E22FF0E0EE5BFE4F808190E02F5F43
:100400002093410108958FEF9FEF0895E0914101FE
:1004100080914001E81730F4F0E0EE5BFE4F808100
:1004200090E008958FEF9FEF08950895CF92DF92A7
:10043000EF92FF920F931F93CF93DF937C01CB0139
:100440008A0120911C01222389F0EB016B01C40E6B
:10045000D51ECC15DD0569F06991D701ED91FC91B0
:100460000190F081E02DC7010995F3CF642F0E9420
:10047000D303C801DF91CF911F910F91FF90EF90AF
:10048000DF90CF900895CF93DF931F92CDB7DEB763
:10049000698320911C012223D1F020911D0120327B
:1004A00040F021E030E0FC013383228380E090E0E3
:1004B00015C080911E01E82FF0E0E15EFE4F9981AA
:1004C00090838F5F80931E0180931D0105C061E0C2
:1004D000CE0101960E94D30381E090E00F90DF915E
:1004E000CF910895FC011382128248EE53E060E040
:1004F00070E0448355836683778384E091E0918341
:1005000080830895109241011092400110921E01C3
:1005100010921D010C94160381E080931C016093DE
:100520003F0110921E0110921D0108950C948C023F
:100530000F93062F21E040911D016FE171E0809142
:100540003F010E947C0310921E0110921D01109227
:100550001C010F9108958F929F92AF92BF92CF92FC
:10056000DF92EF92FF920F931F93CF93DF93EC01F3
:10057000F62ED42E48015901EE2019F10E948C026A
:100580001E2D143008F013E01150B8F0E881F98105
:1005900028E0129FB0011124A501940104C05695D2
:1005A0004795379527956A95D2F7CA01B901019009
:1005B000F081E02DCE010995E7CF60E0CE010E94E9
:1005C00098024D2D413208F040E22C2D62E471E09A
:1005D0008F2D0E9434031092410180934001DF91DE
:1005E000CF911F910F91FF90EF90DF90CF90BF9030
:1005F000AF909F908F900895CF92EF920F931F939B
:10060000C22EE12C00E010E098010E94AB021F9185
:100610000F91EF90CF90089521E00C94FC0261E0DF
:100620000C94980280E191E00C9472021092CF0138
:1006300081E08093CD011092CC0161E082E10E94C3
:100640006D0661E083E10E946D06E9EBF0E08081D8
:100650008E7F808380818D7F808380E28093B8004D
:1006600085E48093BC000895413208F043C0909126
:10067000CF019111FCCF91E09093CF012093CD0158
:100680002FEF209362011092A701240F2093A6015F
:100690009093CE019091CE01880F892B8093CE014B
:1006A0008091CC01813061F41092CC018091CE0117
:1006B0008093BB008091BC0083FDF8CF85EC01C026
:1006C00085EE8093BC008091CF018130E1F3809171
:1006D000A701841710F44091A70128EA31E0FB013B
:1006E000D9018A2F821B841718F48D918193F9CF39
:1006F000842F089580E008950F93413208F04AC096
:100700009091CF019111FCCF92E09093CF01009393
:10071000CD019FEF909362011092A7014093A60133
:10072000FB0168EA71E0DB019A2F961B941718F41D
:1007300091919D93F9CF1092CE019091CE01880FA7
:10074000892B8093CE018091CC01813061F410928D
:10075000CC018091CE018093BB008091BC0083FDD1
:10076000F8CF85EC01C085EE8093BC00222321F0F8
:100770008091CF018230E1F3809162018F3F61F07F
:1007800080916201803251F080916201803341F4A6
:1007900083E007C081E005C080E003C082E001C0C3
:1007A00084E00F910895613298F42091CF012430B4
:1007B00089F460938401FC0186E891E0DC012A2F32
:1007C000281B261718F421912D93F9CF80E0089566
:1007D00081E0089582E0089585ED8093BC008091CA
:1007E000BC0084FDFCCF1092CF01089585EC80936E
:1007F000BC001092CF0108951F920F920FB60F9276
:1008000011242F933F934F935F936F937F938F9315
:100810009F93AF93BF93EF93FF938091B900887F2D
:10082000803609F49EC078F5883209F45DC090F4F2
:10083000803109F456C038F4882309F4F5C08830B3
:1008400009F44FC0F5C0883109F44EC0803209F474
:100850005FC0EEC0803409F46AC058F4803309F4F4
:1008600057C0883309F0E4C0809362010E94F60308
:10087000DFC0803509F44FC0883509F45DC0883485
:1008800009F0D6C0D3C0883909F4C4C0A8F48837A9
:1008900009F467C038F4883609F463C0803709F476
:1008A00060C0C6C0883809F4B5C0803909F45FC09B
:1008B000803809F0BDC05BC0803B09F483C038F4C8
:1008C000803A09F466C0883A09F47CC0B1C0803C23
:1008D00009F4A4C0883C09F4A1C0883B09F487C08E
:1008E000A7C08091CE0110C09091A7018091A60170
:1008F000981770F5E091A70181E08E0F8093A70112
:10090000F0E0E855FE4F80818093BB0085EC83C00A
:10091000809362018BC0E091A70181E08E0F8093EC
:10092000A7018091BB00F0E0E855FE4F80839091D5
:10093000A7018091A6016BC0E091A70181E08E0F15
:100940008093A7018091BB00F0E0E855FE4F8083C3
:100950008091CD0181116AC081E08093CC0184EA4D
:100960005EC083E08093CF0110926301CFCF80916E
:100970006301803208F04EC0E091630181E08E0F88
:10098000809363018091BB00F0E0EC59FE4F8083BF
:10099000BDCF0E94F60380916301803230F4E09174
:1009A0006301F0E0EC59FE4F10826091630170E04A
:1009B000E091C801F091C90184E691E00995109297
:1009C000630136C084E08093CF01109285011092BC
:1009D0008401E091CA01F091CB01099580918401D5
:1009E000811105C081E08093840110928601E0911D
:1009F000850181E08E0F80938501F0E0EA57FE4F7C
:100A000080818093BB00909185018091840198172B
:100A100008F47CCF85E88093BC000AC085EC809305
:100A2000BC001092CF0104C0109262010E94EC033E
:100A3000FF91EF91BF91AF919F918F917F916F91B6
:100A40005F914F913F912F910F900FBE0F901F908C
:100A500018951F920F920FB60F9211242F933F9368
:100A60008F939F93AF93BF938091D1019091D201C7
:100A7000A091D301B091D4013091D00126E0230F91
:100A80002D3720F40296A11DB11D05C029E8230FC2
:100A90000396A11DB11D2093D0018093D1019093A5
:100AA000D201A093D301B093D4018091D50190914C
:100AB000D601A091D701B091D8010196A11DB11D19
:100AC0008093D5019093D601A093D701B093D8011C
:100AD000BF91AF919F918F913F912F910F900FBE3A
:100AE0000F901F9018953FB7F8948091D501909181
:100AF000D601A091D701B091D80126B5A89B05C019
:100B00002F3F19F00196A11DB11D3FBF6627782F19
:100B1000892F9A2F620F711D811D911D43E0660F71
:100B2000771F881F991F4A95D1F708958F929F923A
:100B3000AF92BF92CF92DF92EF92FF926B017C0156
:100B40000E9473054B015C01C114D104E104F1045E
:100B5000F1F00E94B3060E947305681979098A09A9
:100B60009B09683E73408105910570F321E0C21A2C
:100B7000D108E108F10888EE880E83E0981EA11CD8
:100B8000B11CC114D104E104F10429F7DDCFFF90B9
:100B9000EF90DF90CF90BF90AF909F908F9008958F
:100BA000789484B5826084BD84B5816084BD85B548
:100BB000826085BD85B5816085BDEEE6F0E080810F
:100BC00081608083E1E8F0E0108280818260808330
:100BD000808181608083E0E8F0E0808181608083B3
:100BE000E1EBF0E0808184608083E0EBF0E08081E5
:100BF00081608083EAE7F0E0808184608083808187
:100C00008260808380818E7F808380818068808302
:100C10001092C1000895833081F028F4813099F05A
:100C20008230A1F008958730A9F08830B9F084307F
:100C3000D1F4809180008F7D03C0809180008F77F8
:100C400080938000089584B58F7702C084B58F7D2E
:100C500084BD08958091B0008F7703C08091B0006B
:100C60008F7D8093B0000895CF93DF9390E0FC01D7
:100C7000E458FF4F2491FC01E057FF4F84918823F3
:100C800049F190E0880F991FFC01E255FF4FA591B3
:100C9000B4918C559F4FFC01C591D4919FB76111C0
:100CA00008C0F8948C91209582238C9388818223AC
:100CB0000AC0623051F4F8948C91322F309583231E
:100CC0008C938881822B888304C0F8948C91822B2A
:100CD0008C939FBFDF91CF9108950F931F93CF9374
:100CE000DF931F92CDB7DEB7282F30E0F901E85926
:100CF000FF4F8491F901E458FF4F1491F901E05737
:100D0000FF4F04910023C9F0882321F069830E94DA
:100D10000B066981E02FF0E0EE0FFF1FEC55FF4F4F
:100D2000A591B4919FB7F8948C91611103C010956F
:100D3000812301C0812B8C939FBF0F90DF91CF91B6
:100D40001F910F91089508950E94D0050E94A30657
:100D50000E947401C0E0D0E00E94A0002097E1F35F
:100D60000E940000F9CF0895991B79E004C0991FF3
:100D7000961708F0961B881F7A95C9F780950895F5
:100D8000EE0FFF1F0590F491E02D0994F894FFCF2A
:100D90000000000043021602EB01F30106021502F7
:107800000C94343C0C94513C0C94513C0C94513CE1
:107810000C94513C0C94513C0C94513C0C94513CB4
:107820000C94513C0C94513C0C94513C0C94513CA4
:107830000C94513C0C94513C0C94513C0C94513C94
:107840000C94513C0C94513C0C94513C0C94513C84
:107850000C94513C0C94513C0C94513C0C94513C74
:107860000C94513C0C94513C11241FBECFEFD8E036
:10787000DEBFCDBF11E0A0E0B1E0EAE8FFE702C063
:1078800005900D92A230B107D9F712E0A2E0B1E065
:1078900001C01D92AD30B107E1F70E942D3D0C945F
:1078A000C33F0C94003C982F95959595959595958B
:1078B000905D8F708A307CF0282F295A8091C0000B
:1078C00085FFFCCF9093C6008091C00085FFFCCF60
:1078D0002093C6000895282F205DF0CF982F809127
:1078E000C00085FFFCCF9093C6000895EF92FF92F1
:1078F0000F931F93EE24FF2487018091C00087FD22
:1079000017C00894E11CF11C011D111D81E2E8164D
:1079100081EAF80687E0080780E0180770F3E09135
:107920000401F091050109958091C00087FFE9CF1E
:107930008091C6001F910F91FF90EF9008950E94D3
:10794000763C982F8091C00085FFFCCF9093C600B5
:1079500091362CF490330CF09053892F089597555D
:10796000892F08951F930E949F3C182F0E949F3CCF
:107970001295107F810F1F9108951F93182F882350
:1079800021F00E94763C1150E1F71F9108951F935A
:10799000182F0E94763C803249F0809103018F5F5E
:1079A000809303018530C1F01F9108958091C0003C
:1079B00085FFFCCF84E18093C6008091C00085FFE5
:1079C000FCCF1093C6008091C00085FFFCCF80E102
:1079D0008093C6001F910895E0910401F091050184
:1079E00009951F9108950E94763C803241F0809164
:1079F00003018F5F80930301853081F008958091AA
:107A0000C00085FFFCCF84E18093C6008091C00058
:107A100085FFFCCF80E18093C6000895E0910401CA
:107A2000F09105010995089548EC50E08823A1F0F4
:107A30002D9A28EE33E0FA013197F1F721503040CA
:107A4000D1F72D9828EE33E0FA013197F1F7215064
:107A50003040D1F7815061F708953F924F925F9285
:107A60006F927F928F929F92AF92BF92CF92DF924E
:107A7000EF92FF920F931F93CF93DF93000082E06A
:107A80008093C00080E18093C4001092C50088E11B
:107A90008093C10086E08093C2005098589A259A3E
:107AA00081E00E94143D24E1F22E9EE1E92E85E959
:107AB000D82E0FE0C02E10E1B12EAA24A394B1E479
:107AC0009B2EA6E58A2EF2E57F2EE0E26E2E79E46B
:107AD000572E63E5462E50E5352E0E94763C8033C6
:107AE000B1F18133B9F1803409F46FC0813409F404
:107AF00076C0823409F485C0853409F488C08035A5
:107B000031F1823521F1813511F1853509F485C0D6
:107B1000863509F48DC0843609F496C0843709F49B
:107B200003C1853709F472C1863709F466C08091B4
:107B300003018F5F80930301853079F6E0910401A2
:107B4000F091050109950E94763C803351F60E9420
:107B5000F33CC3CF0E94763C803249F78091C0004D
:107B600085FFFCCFF092C6008091C00085FFFCCF5E
:107B70009092C6008091C00085FFFCCF8092C60025
:107B80008091C00085FFFCCF7092C6008091C0003C
:107B900085FFFCCF6092C6008091C00085FFFCCFBE
:107BA0005092C6008091C00085FFFCCF4092C60075
:107BB0008091C00085FFFCCF3092C6008091C0004C
:107BC00085FFFCCFB092C60088CF0E94763C8638F5
:107BD00008F4BDCF0E94763C0E94F33C7ECF0E9409
:107BE000763C803809F49CC0813809F40BC1823896
:107BF00009F430C1883909F48FC080E00E94C73C85
:107C00006CCF84E10E94BD3C0E94F33C66CF85E0CE
:107C10000E94BD3C0E94F33C60CF0E94763C809362
:107C200006010E94763C809307010E94F33C55CFE9
:107C30000E94763C803309F411C183E00E94BD3C70
:107C400080E00E94C73C49CF0E94763C80930902A5
:107C50000E94763C8093080280910C028E7F809374
:107C60000C020E94763C853409F409C18091080217
:107C700090910902892B89F000E010E00E94763C87
:107C8000F801E85FFE4F80830F5F1F4F809108026D
:107C9000909109020817190788F30E94763C8032F8
:107CA00009F045CF80910C0280FFF5C0609106017C
:107CB00070910701660F771F7093070160930601AB
:107CC000A0910802B09109021097C9F0E8E0F1E034
:107CD0009B01AD014E0F5F1FF999FECF32BD21BD53
:107CE000819180BDFA9AF99A2F5F3F4FE417F5070B
:107CF00099F76A0F7B1F70930701609306018091CB
:107D0000C00085FFFCCFF092C6008091C00085FFC7
:107D1000FCCFB092C600E1CE83E00E94C73CDDCE2E
:107D200082E00E94C73CD9CE0E94763C8093090233
:107D30000E94763C80930802809106019091070191
:107D4000880F991F90930701809306010E94763C4B
:107D5000853409F49AC080910C028E7F80930C02C6
:107D60000E94763C803209F0B8CE8091C00085FF39
:107D7000FCCFF092C600A0910802B09109021097C2
:107D8000C1F180910C02082F0170182F1695117007
:107D9000E0910601F0910701AF014F5F5F4FBA011B
:107DA00020E030E00023B1F4112339F49491809164
:107DB000C00085FFFCCF9093C6002F5F3F4FCB01E3
:107DC0000196FA012A173B0780F4BC014F5F5F4F11
:107DD000002351F3F999FECFF2BDE1BDF89A90B5B9
:107DE0008091C00085FFFCCFE6CF709307016093C0
:107DF00006018091C00085FDE5CE8091C00085FF21
:107E0000F8CFE0CE81E00E94C73C67CE0E94763C6E
:107E1000803209F08CCE8091C00085FFFCCFF092BB
:107E2000C6008091C00085FFFCCFE092C600809123
:107E3000C00085FFFCCFD092C6008091C00085FFB6
:107E4000FCCFC092C6008091C00085FFFCCFB092ED
:107E5000C60043CE80E10E94C73C3FCE0E94763CE4
:107E60000E94763C182F0E94763C112309F483C0AF
:107E7000113009F484C08FE00E94C73C2ECE80915F
:107E80000C02816080930C02F1CE80910C02816023
:107E900080930C0265CF809107018823880F880B9F
:107EA0008A2180930B028091060190910701880F2F
:107EB000991F90930701809306018091080280FF2B
:107EC00009C08091080290910902019690930902DD
:107ED00080930802F894F999FECF1127E0910601EA
:107EE000F0910701C8E0D1E0809108029091090269
:107EF000103091F40091570001700130D9F303E084
:107F000000935700E8950091570001700130D9F3B4
:107F100001E100935700E8950990199000915700EE
:107F200001700130D9F301E000935700E8951395F3
:107F3000103498F011270091570001700130D9F3E7
:107F400005E000935700E89500915700017001305B
:107F5000D9F301E100935700E8953296029709F0B2
:107F6000C7CF103011F00296E5CF11248091C000E8
:107F700085FFC5CEC8CE8EE10E94C73CAECD85E957
:0A7F80000E94C73CAACDF894FFCF81
:027F8A00800075
:040000030000780081
:00000001FF
