:100000000C945D000C9485000C9485000C94850084
:100010000C9485000C9485000C9485000C9485004C
:100020000C9485000C9485000C9485000C9485003C
:100030000C9485000C9485000C9485000C9485002C
:100040000C9410030C9485000C94C9050C94FB05CA
:100050000C9485000C9485000C9485000C9485000C
:100060000C9485000C94850000000008000201003B
:100070000003040700000000000000000102040863
:100080001020408001020408102001020408102002
:10009000040404040404040402020202020203032E
:1000A0000303030300000000250028002B000000CC
:1000B0000000240027002A002B0611241FBECFEFCA
:1000C000D8E0DEBFCDBF11E0A0E0B1E0E2EAFDE0A4
:1000D00002C005900D92A232B107D9F722E0A2E248
:1000E000B1E001C01D92A732B207E1F710E0CAEB00
:1000F000D0E004C02297FE010E94CB06C83BD10786
:10010000C9F70E9497060C94CF060C9400005091FA
:10011000370150535A3010F08AE001C0852F809388
:100120002D014091380140534A3010F08AE001C05F
:10013000842F80932C013091390130533A3010F0E4
:100140008AE001C0832F80932B0120913A01205334
:100150002A3010F08AE001C0822F80932A0190910A
:100160003B0190539A3010F08AE001C0892F8093B0
:10017000290180913C0180538A3010F06AE001C06F
:10018000682F609328015A3008F05AE050932201FA
:100190004A3008F04AE0409323013A3008F03AE050
:1001A000309324012A3008F02AE0209325019A3068
:1001B00008F09AE0909326018A3008F08AE0809354
:1001C00027010895FC0182816481238130E09AE057
:1001D000899F200D311D11248CE3829FA001839FF4
:1001E000500D1124858190E02AE0629F800D911DC1
:1001F0001124840F951F08950F931F93CF93DF93BE
:100200008B010E94E200EC01C8010E94E2009C0107
:100210002C1B3D0B2130310539F0892B11F080E08A
:1002200004C0CF30DE40D9F781E0DF91CF911F913C
:100230000F9108958091220180930B0180912301F9
:1002400080930C018091240180930D018091250100
:1002500080930E018091260180930F0180912701E8
:10026000809310010895CF92DF92EF92FF920F9347
:100270001F93CF93DF93C02FD0E0C050DF4F088192
:1002800090E1099F80011124AE2DB0E0A050BF4F36
:10029000CC90C02AE42FF0E0E050FF4F408190E185
:1002A000499FA0011124C22FD0E0C050DF4FE88049
:1002B000E42AA82FB0E0A050BF4F8C9120E1829F8C
:1002C000C0011124E62FF0E0E050FF4F0081082B21
:1002D000C0E0D0E0D12CC6010C2E02C095958795C8
:1002E0000A94E2F780FF02C061E001C060E08EE0A6
:1002F0000E94540461E08FE00E94540460E08FE0AB
:100300000E9454042196C830D10529F7C0E0D0E0FE
:10031000F12CC7010C2E02C0959587950A94E2F73F
:1003200080FF02C061E001C060E08EE00E945404E2
:1003300061E08FE00E94540460E08FE00E9454046A
:100340002196C830D10529F7C0E0D0E010E0C801FF
:100350000C2E02C0959587950A94E2F780FF02C0A3
:1003600061E001C060E08EE00E94540461E08FE033
:100370000E94540460E08FE00E9454042196C8302B
:10038000D10529F761E080E10E94540460E080E13A
:10039000DF91CF911F910F91FF90EF90DF90CF9061
:1003A0000C945404EF920F9361E087E00E941B04C9
:1003B00060E087E00E94540461E082E00E941B0438
:1003C00061E083E00E941B0461E08EE00E941B0458
:1003D00061E08FE00E941B0461E080E10E941B0449
:1003E000E12C00E020E040E060E080E00E9433018A
:1003F00064E670E080E090E00E947D03EE24E394E8
:1004000001E021E041E061E081E00E94330164E627
:1004100070E080E090E00E947D0382E0E82E02E040
:1004200022E042E062E082E00E94330164E670E094
:1004300080E090E00E947D0393E0E92E03E023E05A
:1004400043E063E083E00E94330164E670E080E013
:1004500090E00E947D0324E0E22E04E024E044E0EA
:1004600064E084E00E94330164E670E080E090E0A4
:100470000E947D0335E0E32E05E025E045E065E0E0
:1004800085E00E94330164E670E080E090E00E9425
:100490007D0346E0E42E06E026E046E066E086E0E6
:1004A0000E94330164E670E080E090E00E947D03EA
:1004B00057E0E52E07E027E047E067E087E00E948D
:1004C000330164E670E080E090E00E947D0368E024
:1004D000E62E08E028E048E068E088E00E9433016A
:1004E00064E670E080E090E00E947D0379E0E72E12
:1004F00009E029E049E069E089E00E94330164E60F
:1005000070E080E090E00E947D03EAE0EE2E0AE0D9
:100510002AE04AE06AE08AE00E94330126E040ECEB
:1005200052E160E070E08AE891E00E946D0581E0B0
:10053000809311010F91EF900895EF920F93909196
:100540002E01913009F058C080918001843229F445
:100550008093300190932F014DC090912F01E92F8E
:10056000F0E0E05DFE4F80839F5F903509F49FE4EB
:1005700090932F0121E090913301973409F020E00E
:1005800091E08D3009F090E0922381E020913401D8
:10059000273409F080E0892369F1809135018134A5
:1005A00049F50E948700E0902801009129012091DF
:1005B0002A0140912B0160912C0180912D010E9414
:1005C0003301809111018130A9F462E271E08BE086
:1005D00091E00E94FC00882339F061E083E00E94F2
:1005E00054040E941A0106C060E083E00E94540493
:1005F0001092110110922E010F91EF9008958AE848
:1006000091E00E948A04892B49F08AE891E00E94D7
:10061000A3048093800181E080932E010C949D02BD
:100620001F920F920FB60F9211242F933F938F9327
:100630009F93AF93BF938091820190918301A0918A
:100640008401B09185013091810126E0230F2D377F
:1006500020F40296A11DB11D05C029E8230F0396C1
:10066000A11DB11D2093810180938201909383018C
:10067000A0938401B09385018091860190918701B8
:10068000A0918801B09189010196A11DB11D8093AF
:10069000860190938701A0938801B0938901BF914F
:1006A000AF919F918F913F912F910F900FBE0F901F
:1006B0001F9018953FB7F89480918601909187011B
:1006C000A0918801B091890126B5A89B05C02F3F54
:1006D00019F00196A11DB11D3FBF6627782F892F04
:1006E0009A2F620F711D811D911D43E0660F771FC8
:1006F000881F991F4A95D1F708958F929F92AF92C4
:10070000BF92CF92DF92EF92FF926B017C010E9429
:100710005A034B015C01C114D104E104F104F1F06E
:100720000E94A6060E945A03681979098A099B0942
:10073000683E73408105910570F321E0C21AD1082B
:10074000E108F10888EE880E83E0981EA11CB11C18
:10075000C114D104E104F10429F7DDCFFF90EF903B
:10076000DF90CF90BF90AF909F908F900895789436
:1007700084B5826084BD84B5816084BD85B58260A6
:1007800085BD85B5816085BDEEE6F0E08081816044
:100790008083E1E8F0E01082808182608083808144
:1007A00081608083E0E8F0E0808181608083E1EB1C
:1007B000F0E0808184608083E0EBF0E08081816004
:1007C0008083EAE7F0E080818460808380818260BA
:1007D000808380818E7F8083808180688083109277
:1007E000C1000895833081F028F4813099F082307F
:1007F000A1F008958730A9F08830B9F08430D1F4A1
:10080000809180008F7D03C0809180008F778093DE
:100810008000089584B58F7702C084B58F7D84BD34
:1008200008958091B0008F7703C08091B0008F7DD4
:100830008093B0000895CF93DF9390E0FC01E458DB
:10084000FF4F2491FC01E057FF4F8491882349F129
:1008500090E0880F991FFC01E255FF4FA591B491DC
:100860008C559F4FFC01C591D4919FB7611108C071
:10087000F8948C91209582238C93888182230AC0DE
:10088000623051F4F8948C91322F309583238C93FD
:100890008881822B888304C0F8948C91822B8C935E
:1008A0009FBFDF91CF9108950F931F93CF93DF9355
:1008B0001F92CDB7DEB7282F30E0F901E859FF4F7E
:1008C0008491F901E458FF4F1491F901E057FF4F6B
:1008D00004910023C9F0882321F069830E94F20368
:1008E0006981E02FF0E0EE0FFF1FEC55FF4FA5915F
:1008F000B4919FB7F8948C91611103C01095812336
:1009000001C0812B8C939FBF0F90DF91CF911F91DE
:100910000F910895FC01818D228D90E0805C9F4FA6
:10092000821B91098F7399270895FC01918D828D07
:10093000981731F0828DE80FF11D858D90E00895B4
:100940008FEF9FEF0895FC01918D828D981761F0D4
:10095000828DDF01A80FB11D5D968C91928D9F5FF6
:100960009F73928F90E008958FEF9FEF089581E23B
:1009700096E0892B49F080E090E0892B29F00E94D5
:10098000210681110C9400000895FC01848DDF0183
:10099000A80FB11DA35ABF4F2C91848D90E00196F2
:1009A0008F739927848FA689B7892C93A089B189E1
:1009B0008C9180648C93938D848D981306C00288EB
:1009C000F389E02D80818F7D80830895CF93DF931D
:1009D000EC01888D8823C9F0EA89FB89808185FD37
:1009E00005C0A889B9898C9186FD0FC00FB607FC98
:1009F000F5CF808185FFF2CFA889B9898C9185FFD9
:100A0000EDCFCE010E94C504E7CFDF91CF910895CD
:100A1000CF92DF92FF920F931F93CF93DF931F929A
:100A2000CDB7DEB76C0181E0D60158968C9358970C
:100A30005B969C915B975C968C915C97981307C032
:100A40005096ED91FC915197808185FD2EC0F60165
:100A5000038D10E00F5F1F4F0F731127F02EF6016B
:100A6000848DF81211C00FB607FCF9CFD60150964D
:100A7000ED91FC915197808185FFF1CFC60169838B
:100A80000E94C5046981EBCF838DE80FF11DE35A05
:100A9000FF4F6083D6015B960C935B975296ED9166
:100AA000FC915397808180620CC0D6015696ED91DF
:100AB000FC91579760835096ED91FC9151978081FE
:100AC0008064808381E090E00F90DF91CF911F914F
:100AD0000F91FF90DF90CF900895BF92CF92DF9259
:100AE000EF92FF92CF93DF93EC016A017B01B22E6C
:100AF00060E874E88EE190E0A70196010E94A706E5
:100B00002150310941095109569547953795279547
:100B1000E889F98982E08083211580E1380798F01F
:100B2000E889F989108260E472E48FE090E0A7011F
:100B300096010E94A7062150310941095109569595
:100B4000479537952795EC85FD853083EE85FF85A4
:100B50002083188EEC89FD89B082EA89FB89808127
:100B600080618083EA89FB89808188608083EA894B
:100B7000FB89808180688083EA89FB8980818F7D01
:100B80008083DF91CF91FF90EF90DF90CF90BF9067
:100B900008951F920F920FB60F9211242F938F93E7
:100BA0009F93EF93FF93E0919A01F0919B018081D5
:100BB000E091A001F091A10182FD12C0908180918D
:100BC000A3018F5F8F732091A401821751F0E091F0
:100BD000A301F0E0E657FE4F958F8093A30101C07B
:100BE0008081FF91EF919F918F912F910F900FBE78
:100BF0000F901F9018951F920F920FB60F9211240D
:100C00002F933F934F935F936F937F938F939F9314
:100C1000AF93BF93EF93FF938AE891E00E94C504DE
:100C2000FF91EF91BF91AF919F918F917F916F91C4
:100C30005F914F913F912F910F900FBE0F901F909A
:100C400018958AE891E00E948A0421E0892B09F432
:100C500020E0822F089510928D0110928C0188EE71
:100C600093E0A0E0B0E080938E0190938F01A09379
:100C70009001B093910186E191E090938B01809374
:100C80008A0185EC90E0909397018093960184EC23
:100C900090E0909399018093980180EC90E090937C
:100CA0009B0180939A0181EC90E090939D01809349
:100CB0009C0182EC90E090939F0180939E0186ECD2
:100CC00090E09093A1018093A0011092A301109253
:100CD000A4011092A5011092A6010895CF92DF926F
:100CE000EF92FF920F931F93CF93DF937C016A01E2
:100CF000EB0100E010E00C151D0571F06991D701C2
:100D0000ED91FC910190F081E02DC7010995892BAF
:100D100019F00F5F1F4FEFCFC801DF91CF911F91E7
:100D20000F91FF90EF90DF90CF90089508950E946B
:100D3000B7030E9496060E94D201C7EBD4E00E943E
:100D4000FF022097E1F30E94B704F9CF0895A1E2D2
:100D50001A2EAA1BBB1BFD010DC0AA1FBB1FEE1F35
:100D6000FF1FA217B307E407F50720F0A21BB30B80
:100D7000E40BF50B661F771F881F991F1A9469F7FC
:100D800060957095809590959B01AC01BD01CF0158
:100D90000895EE0FFF1F0590F491E02D0994F8944B
:020DA000FFCF83
:100DA200000102030405060708090F0203050904EE
:100DB20005010000000008056E068A04A3049504DC
:020DC200E60445
:00000001FF
